{
  "_format": "hh-sol-artifact-1",
  "contractName": "FiredGuys",
  "sourceName": "contracts/MyNFT.sol",
  "abi": [
    {
      "inputs": [],
      "stateMutability": "nonpayable",
      "type": "constructor"
    },
    {
      "anonymous": false,
      "inputs": [
        {
          "indexed": true,
          "internalType": "address",
          "name": "owner",
          "type": "address"
        },
        {
          "indexed": true,
          "internalType": "address",
          "name": "approved",
          "type": "address"
        },
        {
          "indexed": true,
          "internalType": "uint256",
          "name": "tokenId",
          "type": "uint256"
        }
      ],
      "name": "Approval",
      "type": "event"
    },
    {
      "anonymous": false,
      "inputs": [
        {
          "indexed": true,
          "internalType": "address",
          "name": "owner",
          "type": "address"
        },
        {
          "indexed": true,
          "internalType": "address",
          "name": "operator",
          "type": "address"
        },
        {
          "indexed": false,
          "internalType": "bool",
          "name": "approved",
          "type": "bool"
        }
      ],
      "name": "ApprovalForAll",
      "type": "event"
    },
    {
      "anonymous": false,
      "inputs": [
        {
          "indexed": true,
          "internalType": "address",
          "name": "previousOwner",
          "type": "address"
        },
        {
          "indexed": true,
          "internalType": "address",
          "name": "newOwner",
          "type": "address"
        }
      ],
      "name": "OwnershipTransferred",
      "type": "event"
    },
    {
      "anonymous": false,
      "inputs": [
        {
          "indexed": true,
          "internalType": "address",
          "name": "from",
          "type": "address"
        },
        {
          "indexed": true,
          "internalType": "address",
          "name": "to",
          "type": "address"
        },
        {
          "indexed": true,
          "internalType": "uint256",
          "name": "tokenId",
          "type": "uint256"
        }
      ],
      "name": "Transfer",
      "type": "event"
    },
    {
      "inputs": [
        {
          "internalType": "address",
          "name": "to",
          "type": "address"
        },
        {
          "internalType": "uint256",
          "name": "tokenId",
          "type": "uint256"
        }
      ],
      "name": "approve",
      "outputs": [],
      "stateMutability": "nonpayable",
      "type": "function"
    },
    {
      "inputs": [
        {
          "internalType": "address",
          "name": "owner",
          "type": "address"
        }
      ],
      "name": "balanceOf",
      "outputs": [
        {
          "internalType": "uint256",
          "name": "",
          "type": "uint256"
        }
      ],
      "stateMutability": "view",
      "type": "function"
    },
    {
      "inputs": [
        {
          "internalType": "uint256",
          "name": "tokenId",
          "type": "uint256"
        }
      ],
      "name": "burn",
      "outputs": [],
      "stateMutability": "nonpayable",
      "type": "function"
    },
    {
      "inputs": [
        {
          "internalType": "string",
          "name": "str1",
          "type": "string"
        },
        {
          "internalType": "string",
          "name": "str2",
          "type": "string"
        }
      ],
      "name": "compare",
      "outputs": [
        {
          "internalType": "bool",
          "name": "",
          "type": "bool"
        }
      ],
      "stateMutability": "pure",
      "type": "function"
    },
    {
      "inputs": [],
      "name": "count",
      "outputs": [
        {
          "internalType": "uint256",
          "name": "",
          "type": "uint256"
        }
      ],
      "stateMutability": "view",
      "type": "function"
    },
    {
      "inputs": [],
      "name": "count_burned",
      "outputs": [
        {
          "internalType": "uint256",
          "name": "",
          "type": "uint256"
        }
      ],
      "stateMutability": "view",
      "type": "function"
    },
    {
      "inputs": [
        {
          "internalType": "uint256",
          "name": "tokenId",
          "type": "uint256"
        }
      ],
      "name": "getApproved",
      "outputs": [
        {
          "internalType": "address",
          "name": "",
          "type": "address"
        }
      ],
      "stateMutability": "view",
      "type": "function"
    },
    {
      "inputs": [
        {
          "internalType": "address",
          "name": "owner",
          "type": "address"
        },
        {
          "internalType": "address",
          "name": "operator",
          "type": "address"
        }
      ],
      "name": "isApprovedForAll",
      "outputs": [
        {
          "internalType": "bool",
          "name": "",
          "type": "bool"
        }
      ],
      "stateMutability": "view",
      "type": "function"
    },
    {
      "inputs": [
        {
          "internalType": "string",
          "name": "uri",
          "type": "string"
        }
      ],
      "name": "isContentBurned",
      "outputs": [
        {
          "internalType": "bool",
          "name": "",
          "type": "bool"
        }
      ],
      "stateMutability": "view",
      "type": "function"
    },
    {
      "inputs": [
        {
          "internalType": "string",
          "name": "uri",
          "type": "string"
        }
      ],
      "name": "isContentOwned",
      "outputs": [
        {
          "internalType": "bool",
          "name": "",
          "type": "bool"
        }
      ],
      "stateMutability": "view",
      "type": "function"
    },
    {
      "inputs": [
        {
          "internalType": "uint256",
          "name": "tokenID",
          "type": "uint256"
        }
      ],
      "name": "isTokenBurned",
      "outputs": [
        {
          "internalType": "bool",
          "name": "",
          "type": "bool"
        }
      ],
      "stateMutability": "view",
      "type": "function"
    },
    {
      "inputs": [],
      "name": "name",
      "outputs": [
        {
          "internalType": "string",
          "name": "",
          "type": "string"
        }
      ],
      "stateMutability": "view",
      "type": "function"
    },
    {
      "inputs": [],
      "name": "owner",
      "outputs": [
        {
          "internalType": "address",
          "name": "",
          "type": "address"
        }
      ],
      "stateMutability": "view",
      "type": "function"
    },
    {
      "inputs": [
        {
          "internalType": "uint256",
          "name": "tokenId",
          "type": "uint256"
        }
      ],
      "name": "ownerOf",
      "outputs": [
        {
          "internalType": "address",
          "name": "",
          "type": "address"
        }
      ],
      "stateMutability": "view",
      "type": "function"
    },
    {
      "inputs": [
        {
          "internalType": "string",
          "name": "metadataURI",
          "type": "string"
        },
        {
          "internalType": "uint256",
          "name": "tokenId",
          "type": "uint256"
        }
      ],
      "name": "payToBurn",
      "outputs": [
        {
          "internalType": "uint256",
          "name": "",
          "type": "uint256"
        }
      ],
      "stateMutability": "payable",
      "type": "function"
    },
    {
      "inputs": [
        {
          "internalType": "address",
          "name": "recipient",
          "type": "address"
        },
        {
          "internalType": "string",
          "name": "metadataURI",
          "type": "string"
        }
      ],
      "name": "payToMint",
      "outputs": [
        {
          "internalType": "uint256",
          "name": "",
          "type": "uint256"
        }
      ],
      "stateMutability": "payable",
      "type": "function"
    },
    {
      "inputs": [],
      "name": "renounceOwnership",
      "outputs": [],
      "stateMutability": "nonpayable",
      "type": "function"
    },
    {
      "inputs": [
        {
          "internalType": "address",
          "name": "to",
          "type": "address"
        },
        {
          "internalType": "string",
          "name": "uri",
          "type": "string"
        }
      ],
      "name": "safeMint",
      "outputs": [],
      "stateMutability": "nonpayable",
      "type": "function"
    },
    {
      "inputs": [
        {
          "internalType": "address",
          "name": "from",
          "type": "address"
        },
        {
          "internalType": "address",
          "name": "to",
          "type": "address"
        },
        {
          "internalType": "uint256",
          "name": "tokenId",
          "type": "uint256"
        }
      ],
      "name": "safeTransferFrom",
      "outputs": [],
      "stateMutability": "nonpayable",
      "type": "function"
    },
    {
      "inputs": [
        {
          "internalType": "address",
          "name": "from",
          "type": "address"
        },
        {
          "internalType": "address",
          "name": "to",
          "type": "address"
        },
        {
          "internalType": "uint256",
          "name": "tokenId",
          "type": "uint256"
        },
        {
          "internalType": "bytes",
          "name": "_data",
          "type": "bytes"
        }
      ],
      "name": "safeTransferFrom",
      "outputs": [],
      "stateMutability": "nonpayable",
      "type": "function"
    },
    {
      "inputs": [
        {
          "internalType": "address",
          "name": "operator",
          "type": "address"
        },
        {
          "internalType": "bool",
          "name": "approved",
          "type": "bool"
        }
      ],
      "name": "setApprovalForAll",
      "outputs": [],
      "stateMutability": "nonpayable",
      "type": "function"
    },
    {
      "inputs": [
        {
          "internalType": "bytes4",
          "name": "interfaceId",
          "type": "bytes4"
        }
      ],
      "name": "supportsInterface",
      "outputs": [
        {
          "internalType": "bool",
          "name": "",
          "type": "bool"
        }
      ],
      "stateMutability": "view",
      "type": "function"
    },
    {
      "inputs": [],
      "name": "symbol",
      "outputs": [
        {
          "internalType": "string",
          "name": "",
          "type": "string"
        }
      ],
      "stateMutability": "view",
      "type": "function"
    },
    {
      "inputs": [
        {
          "internalType": "uint256",
          "name": "tokenId",
          "type": "uint256"
        }
      ],
      "name": "tokenURI",
      "outputs": [
        {
          "internalType": "string",
          "name": "",
          "type": "string"
        }
      ],
      "stateMutability": "view",
      "type": "function"
    },
    {
      "inputs": [
        {
          "internalType": "address",
          "name": "from",
          "type": "address"
        },
        {
          "internalType": "address",
          "name": "to",
          "type": "address"
        },
        {
          "internalType": "uint256",
          "name": "tokenId",
          "type": "uint256"
        }
      ],
      "name": "transferFrom",
      "outputs": [],
      "stateMutability": "nonpayable",
      "type": "function"
    },
    {
      "inputs": [
        {
          "internalType": "address",
          "name": "recipient",
          "type": "address"
        },
        {
          "internalType": "uint256",
          "name": "tokenId",
          "type": "uint256"
        }
      ],
      "name": "transferNFT",
      "outputs": [],
      "stateMutability": "nonpayable",
      "type": "function"
    },
    {
      "inputs": [
        {
          "internalType": "address",
          "name": "newOwner",
          "type": "address"
        }
      ],
      "name": "transferOwnership",
      "outputs": [],
      "stateMutability": "nonpayable",
      "type": "function"
    }
  ],
  "bytecode": "0x60806040523480156200001157600080fd5b506040518060400160405280600981526020017f46697265644775797300000000000000000000000000000000000000000000008152506040518060400160405280600381526020017f4659520000000000000000000000000000000000000000000000000000000000815250816000908051906020019062000096929190620001a6565b508060019080519060200190620000af929190620001a6565b505050620000d2620000c6620000d860201b60201c565b620000e060201b60201c565b620002bb565b600033905090565b6000600760009054906101000a900473ffffffffffffffffffffffffffffffffffffffff16905081600760006101000a81548173ffffffffffffffffffffffffffffffffffffffff021916908373ffffffffffffffffffffffffffffffffffffffff1602179055508173ffffffffffffffffffffffffffffffffffffffff168173ffffffffffffffffffffffffffffffffffffffff167f8be0079c531659141344cd1fd0a4f28419497f9722a3daafe3b4186f6b6457e060405160405180910390a35050565b828054620001b49062000256565b90600052602060002090601f016020900481019282620001d8576000855562000224565b82601f10620001f357805160ff191683800117855562000224565b8280016001018555821562000224579182015b828111156200022357825182559160200191906001019062000206565b5b50905062000233919062000237565b5090565b5b808211156200025257600081600090555060010162000238565b5090565b600060028204905060018216806200026f57607f821691505b602082108114156200028657620002856200028c565b5b50919050565b7f4e487b7100000000000000000000000000000000000000000000000000000000600052602260045260246000fd5b613e7480620002cb6000396000f3fe60806040526004361061019c5760003560e01c806370a08231116100ec578063a22cb4651161008a578063d204c45e11610064578063d204c45e146105f6578063e985e9c51461061f578063f2fde38b1461065c578063fc31f32f146106855761019c565b8063a22cb46514610567578063b88d4fde14610590578063c87b56dd146105b95761019c565b806394ab67fe116100c657806394ab67fe146104a657806395d89b41146104cf578063999fc5a7146104fa5780639f1cabc61461052a5761019c565b806370a0823114610427578063715018a6146104645780638da5cb5b1461047b5761019c565b806339d3395c1161015957806342842e0e1161013357806342842e0e1461036857806342966c6814610391578063615fd9e2146103ba5780636352211e146103ea5761019c565b806339d3395c146102c35780633a87d454146102ee5780633a96fdd71461032b5761019c565b806301ffc9a7146101a157806306661abd146101de57806306fdde0314610209578063081812fc14610234578063095ea7b31461027157806323b872dd1461029a575b600080fd5b3480156101ad57600080fd5b506101c860048036038101906101c39190612a37565b6106c2565b6040516101d5919061306d565b60405180910390f35b3480156101ea57600080fd5b506101f36107a4565b60405161020091906133aa565b60405180910390f35b34801561021557600080fd5b5061021e6107b5565b60405161022b9190613088565b60405180910390f35b34801561024057600080fd5b5061025b60048036038101906102569190612b8a565b610847565b6040516102689190613006565b60405180910390f35b34801561027d57600080fd5b50610298600480360381019061029391906129fb565b6108cc565b005b3480156102a657600080fd5b506102c160048036038101906102bc91906128a1565b6109e4565b005b3480156102cf57600080fd5b506102d8610a44565b6040516102e591906133aa565b60405180910390f35b3480156102fa57600080fd5b5061031560048036038101906103109190612b8a565b610a55565b604051610322919061306d565b60405180910390f35b34801561033757600080fd5b50610352600480360381019061034d9190612aca565b610a85565b60405161035f919061306d565b60405180910390f35b34801561037457600080fd5b5061038f600480360381019061038a91906128a1565b610ade565b005b34801561039d57600080fd5b506103b860048036038101906103b39190612b8a565b610afe565b005b6103d460048036038101906103cf91906129a7565b610b5a565b6040516103e191906133aa565b60405180910390f35b3480156103f657600080fd5b50610411600480360381019061040c9190612b8a565b610c86565b60405161041e9190613006565b60405180910390f35b34801561043357600080fd5b5061044e6004803603810190610449919061283c565b610d38565b60405161045b91906133aa565b60405180910390f35b34801561047057600080fd5b50610479610df0565b005b34801561048757600080fd5b50610490610e78565b60405161049d9190613006565b60405180910390f35b3480156104b257600080fd5b506104cd60048036038101906104c891906129fb565b610ea2565b005b3480156104db57600080fd5b506104e4610f27565b6040516104f19190613088565b60405180910390f35b610514600480360381019061050f9190612b36565b610fb9565b60405161052191906133aa565b60405180910390f35b34801561053657600080fd5b50610551600480360381019061054c9190612a89565b61116e565b60405161055e919061306d565b60405180910390f35b34801561057357600080fd5b5061058e6004803603810190610589919061296b565b6111a9565b005b34801561059c57600080fd5b506105b760048036038101906105b291906128f0565b6111bf565b005b3480156105c557600080fd5b506105e060048036038101906105db9190612b8a565b611221565b6040516105ed9190613088565b60405180910390f35b34801561060257600080fd5b5061061d600480360381019061061891906129a7565b611233565b005b34801561062b57600080fd5b5061064660048036038101906106419190612865565b611318565b604051610653919061306d565b60405180910390f35b34801561066857600080fd5b50610683600480360381019061067e919061283c565b6113ac565b005b34801561069157600080fd5b506106ac60048036038101906106a79190612a89565b6114a4565b6040516106b9919061306d565b60405180910390f35b60007f80ac58cd000000000000000000000000000000000000000000000000000000007bffffffffffffffffffffffffffffffffffffffffffffffffffffffff1916827bffffffffffffffffffffffffffffffffffffffffffffffffffffffff1916148061078d57507f5b5e139f000000000000000000000000000000000000000000000000000000007bffffffffffffffffffffffffffffffffffffffffffffffffffffffff1916827bffffffffffffffffffffffffffffffffffffffffffffffffffffffff1916145b8061079d575061079c826114df565b5b9050919050565b60006107b06008611549565b905090565b6060600080546107c490613600565b80601f01602080910402602001604051908101604052809291908181526020018280546107f090613600565b801561083d5780601f106108125761010080835404028352916020019161083d565b820191906000526020600020905b81548152906001019060200180831161082057829003601f168201915b5050505050905090565b600061085282611557565b610891576040517f08c379a00000000000000000000000000000000000000000000000000000000081526004016108889061326a565b60405180910390fd5b6004600083815260200190815260200160002060009054906101000a900473ffffffffffffffffffffffffffffffffffffffff169050919050565b60006108d782610c86565b90508073ffffffffffffffffffffffffffffffffffffffff168373ffffffffffffffffffffffffffffffffffffffff161415610948576040517f08c379a000000000000000000000000000000000000000000000000000000000815260040161093f906132ea565b60405180910390fd5b8073ffffffffffffffffffffffffffffffffffffffff166109676115c3565b73ffffffffffffffffffffffffffffffffffffffff1614806109965750610995816109906115c3565b611318565b5b6109d5576040517f08c379a00000000000000000000000000000000000000000000000000000000081526004016109cc9061318a565b60405180910390fd5b6109df83836115cb565b505050565b6109f56109ef6115c3565b82611684565b610a34576040517f08c379a0000000000000000000000000000000000000000000000000000000008152600401610a2b9061330a565b60405180910390fd5b610a3f838383611762565b505050565b6000610a506009611549565b905090565b60006001600c600084815260200190815260200160002060009054906101000a900460ff1660ff16149050919050565b600081604051602001610a989190612fcb565b6040516020818303038152906040528051906020012083604051602001610abf9190612fcb565b6040516020818303038152906040528051906020012014905092915050565b610af9838383604051806020016040528060008152506111bf565b505050565b610b0f610b096115c3565b82611684565b610b4e576040517f08c379a0000000000000000000000000000000000000000000000000000000008152600401610b459061336a565b60405180910390fd5b610b57816119be565b50565b60006001600a83604051610b6e9190612fcb565b908152602001604051809103902060009054906101000a900460ff1660ff161415610bce576040517f08c379a0000000000000000000000000000000000000000000000000000000008152600401610bc59061332a565b60405180910390fd5b66b1a2bc2ec50000341015610c18576040517f08c379a0000000000000000000000000000000000000000000000000000000008152600401610c0f9061338a565b60405180910390fd5b6000610c246008611549565b9050610c3060086119ca565b6001600a84604051610c429190612fcb565b908152602001604051809103902060006101000a81548160ff021916908360ff160217905550610c7284826119e0565b610c7c8184611bae565b8091505092915050565b6000806002600084815260200190815260200160002060009054906101000a900473ffffffffffffffffffffffffffffffffffffffff169050600073ffffffffffffffffffffffffffffffffffffffff168173ffffffffffffffffffffffffffffffffffffffff161415610d2f576040517f08c379a0000000000000000000000000000000000000000000000000000000008152600401610d26906131ca565b60405180910390fd5b80915050919050565b60008073ffffffffffffffffffffffffffffffffffffffff168273ffffffffffffffffffffffffffffffffffffffff161415610da9576040517f08c379a0000000000000000000000000000000000000000000000000000000008152600401610da0906131aa565b60405180910390fd5b600360008373ffffffffffffffffffffffffffffffffffffffff1673ffffffffffffffffffffffffffffffffffffffff168152602001908152602001600020549050919050565b610df86115c3565b73ffffffffffffffffffffffffffffffffffffffff16610e16610e78565b73ffffffffffffffffffffffffffffffffffffffff1614610e6c576040517f08c379a0000000000000000000000000000000000000000000000000000000008152600401610e639061328a565b60405180910390fd5b610e766000611c22565b565b6000600760009054906101000a900473ffffffffffffffffffffffffffffffffffffffff16905090565b610eab81610c86565b73ffffffffffffffffffffffffffffffffffffffff163373ffffffffffffffffffffffffffffffffffffffff1614610f18576040517f08c379a0000000000000000000000000000000000000000000000000000000008152600401610f0f9061320a565b60405180910390fd5b610f23338383611762565b5050565b606060018054610f3690613600565b80601f0160208091040260200160405190810160405280929190818152602001828054610f6290613600565b8015610faf5780601f10610f8457610100808354040283529160200191610faf565b820191906000526020600020905b815481529060010190602001808311610f9257829003601f168201915b5050505050905090565b60006001600b84604051610fcd9190612fcb565b908152602001604051809103902060009054906101000a900460ff1660ff16141561102d576040517f08c379a00000000000000000000000000000000000000000000000000000000081526004016110249061310a565b60405180910390fd5b66b1a2bc2ec50000341015611077576040517f08c379a000000000000000000000000000000000000000000000000000000000815260040161106e9061338a565b60405180910390fd5b61108082610c86565b73ffffffffffffffffffffffffffffffffffffffff163373ffffffffffffffffffffffffffffffffffffffff16146110ed576040517f08c379a00000000000000000000000000000000000000000000000000000000081526004016110e49061334a565b60405180910390fd5b6001600b846040516110ff9190612fcb565b908152602001604051809103902060006101000a81548160ff021916908360ff1602179055506001600c600084815260200190815260200160002060006101000a81548160ff021916908360ff16021790555061115c60096119ca565b611165826119be565b81905092915050565b60006001600a836040516111829190612fcb565b908152602001604051809103902060009054906101000a900460ff1660ff16149050919050565b6111bb6111b46115c3565b8383611ce8565b5050565b6111d06111ca6115c3565b83611684565b61120f576040517f08c379a00000000000000000000000000000000000000000000000000000000081526004016112069061330a565b60405180910390fd5b61121b84848484611e55565b50505050565b606061122c82611eb1565b9050919050565b61123b6115c3565b73ffffffffffffffffffffffffffffffffffffffff16611259610e78565b73ffffffffffffffffffffffffffffffffffffffff16146112af576040517f08c379a00000000000000000000000000000000000000000000000000000000081526004016112a69061328a565b60405180910390fd5b60006112bb6008611549565b90506112c760086119ca565b6112d18382612003565b6112db8183611bae565b6001600a836040516112ed9190612fcb565b908152602001604051809103902060006101000a81548160ff021916908360ff160217905550505050565b6000600560008473ffffffffffffffffffffffffffffffffffffffff1673ffffffffffffffffffffffffffffffffffffffff16815260200190815260200160002060008373ffffffffffffffffffffffffffffffffffffffff1673ffffffffffffffffffffffffffffffffffffffff16815260200190815260200160002060009054906101000a900460ff16905092915050565b6113b46115c3565b73ffffffffffffffffffffffffffffffffffffffff166113d2610e78565b73ffffffffffffffffffffffffffffffffffffffff1614611428576040517f08c379a000000000000000000000000000000000000000000000000000000000815260040161141f9061328a565b60405180910390fd5b600073ffffffffffffffffffffffffffffffffffffffff168173ffffffffffffffffffffffffffffffffffffffff161415611498576040517f08c379a000000000000000000000000000000000000000000000000000000000815260040161148f906130ca565b60405180910390fd5b6114a181611c22565b50565b60006001600b836040516114b89190612fcb565b908152602001604051809103902060009054906101000a900460ff1660ff16149050919050565b60007f01ffc9a7000000000000000000000000000000000000000000000000000000007bffffffffffffffffffffffffffffffffffffffffffffffffffffffff1916827bffffffffffffffffffffffffffffffffffffffffffffffffffffffff1916149050919050565b600081600001549050919050565b60008073ffffffffffffffffffffffffffffffffffffffff166002600084815260200190815260200160002060009054906101000a900473ffffffffffffffffffffffffffffffffffffffff1673ffffffffffffffffffffffffffffffffffffffff1614159050919050565b600033905090565b816004600083815260200190815260200160002060006101000a81548173ffffffffffffffffffffffffffffffffffffffff021916908373ffffffffffffffffffffffffffffffffffffffff160217905550808273ffffffffffffffffffffffffffffffffffffffff1661163e83610c86565b73ffffffffffffffffffffffffffffffffffffffff167f8c5be1e5ebec7d5bd14f71427d1e84f3dd0314c0f7b2291e5b200ac8c7c3b92560405160405180910390a45050565b600061168f82611557565b6116ce576040517f08c379a00000000000000000000000000000000000000000000000000000000081526004016116c59061316a565b60405180910390fd5b60006116d983610c86565b90508073ffffffffffffffffffffffffffffffffffffffff168473ffffffffffffffffffffffffffffffffffffffff16148061174857508373ffffffffffffffffffffffffffffffffffffffff1661173084610847565b73ffffffffffffffffffffffffffffffffffffffff16145b8061175957506117588185611318565b5b91505092915050565b8273ffffffffffffffffffffffffffffffffffffffff1661178282610c86565b73ffffffffffffffffffffffffffffffffffffffff16146117d8576040517f08c379a00000000000000000000000000000000000000000000000000000000081526004016117cf906132aa565b60405180910390fd5b600073ffffffffffffffffffffffffffffffffffffffff168273ffffffffffffffffffffffffffffffffffffffff161415611848576040517f08c379a000000000000000000000000000000000000000000000000000000000815260040161183f9061312a565b60405180910390fd5b611853838383612021565b61185e6000826115cb565b6001600360008573ffffffffffffffffffffffffffffffffffffffff1673ffffffffffffffffffffffffffffffffffffffff16815260200190815260200160002060008282546118ae9190613516565b925050819055506001600360008473ffffffffffffffffffffffffffffffffffffffff1673ffffffffffffffffffffffffffffffffffffffff1681526020019081526020016000206000828254611905919061348f565b92505081905550816002600083815260200190815260200160002060006101000a81548173ffffffffffffffffffffffffffffffffffffffff021916908373ffffffffffffffffffffffffffffffffffffffff160217905550808273ffffffffffffffffffffffffffffffffffffffff168473ffffffffffffffffffffffffffffffffffffffff167fddf252ad1be2c89b69c2b068fc378daa952ba7f163c4a11628f55a4df523b3ef60405160405180910390a4505050565b6119c781612026565b50565b6001816000016000828254019250508190555050565b600073ffffffffffffffffffffffffffffffffffffffff168273ffffffffffffffffffffffffffffffffffffffff161415611a50576040517f08c379a0000000000000000000000000000000000000000000000000000000008152600401611a479061322a565b60405180910390fd5b611a5981611557565b15611a99576040517f08c379a0000000000000000000000000000000000000000000000000000000008152600401611a90906130ea565b60405180910390fd5b611aa560008383612021565b6001600360008473ffffffffffffffffffffffffffffffffffffffff1673ffffffffffffffffffffffffffffffffffffffff1681526020019081526020016000206000828254611af5919061348f565b92505081905550816002600083815260200190815260200160002060006101000a81548173ffffffffffffffffffffffffffffffffffffffff021916908373ffffffffffffffffffffffffffffffffffffffff160217905550808273ffffffffffffffffffffffffffffffffffffffff16600073ffffffffffffffffffffffffffffffffffffffff167fddf252ad1be2c89b69c2b068fc378daa952ba7f163c4a11628f55a4df523b3ef60405160405180910390a45050565b611bb782611557565b611bf6576040517f08c379a0000000000000000000000000000000000000000000000000000000008152600401611bed906131ea565b60405180910390fd5b80600660008481526020019081526020016000209080519060200190611c1d929190612620565b505050565b6000600760009054906101000a900473ffffffffffffffffffffffffffffffffffffffff16905081600760006101000a81548173ffffffffffffffffffffffffffffffffffffffff021916908373ffffffffffffffffffffffffffffffffffffffff1602179055508173ffffffffffffffffffffffffffffffffffffffff168173ffffffffffffffffffffffffffffffffffffffff167f8be0079c531659141344cd1fd0a4f28419497f9722a3daafe3b4186f6b6457e060405160405180910390a35050565b8173ffffffffffffffffffffffffffffffffffffffff168373ffffffffffffffffffffffffffffffffffffffff161415611d57576040517f08c379a0000000000000000000000000000000000000000000000000000000008152600401611d4e9061314a565b60405180910390fd5b80600560008573ffffffffffffffffffffffffffffffffffffffff1673ffffffffffffffffffffffffffffffffffffffff16815260200190815260200160002060008473ffffffffffffffffffffffffffffffffffffffff1673ffffffffffffffffffffffffffffffffffffffff16815260200190815260200160002060006101000a81548160ff0219169083151502179055508173ffffffffffffffffffffffffffffffffffffffff168373ffffffffffffffffffffffffffffffffffffffff167f17307eab39ab6107e8899845ad3d59bd9653f200f220920489ca2b5937696c3183604051611e48919061306d565b60405180910390a3505050565b611e60848484611762565b611e6c84848484612079565b611eab576040517f08c379a0000000000000000000000000000000000000000000000000000000008152600401611ea2906130aa565b60405180910390fd5b50505050565b6060611ebc82611557565b611efb576040517f08c379a0000000000000000000000000000000000000000000000000000000008152600401611ef29061324a565b60405180910390fd5b6000600660008481526020019081526020016000208054611f1b90613600565b80601f0160208091040260200160405190810160405280929190818152602001828054611f4790613600565b8015611f945780601f10611f6957610100808354040283529160200191611f94565b820191906000526020600020905b815481529060010190602001808311611f7757829003601f168201915b505050505090506000611fa5612210565b9050600081511415611fbb578192505050611ffe565b600082511115611ff0578082604051602001611fd8929190612fe2565b60405160208183030381529060405292505050611ffe565b611ff98461224d565b925050505b919050565b61201d8282604051806020016040528060008152506122f4565b5050565b505050565b61202f8161234f565b600060066000838152602001908152602001600020805461204f90613600565b9050146120765760066000828152602001908152602001600020600061207591906126a6565b5b50565b600061209a8473ffffffffffffffffffffffffffffffffffffffff16612460565b15612203578373ffffffffffffffffffffffffffffffffffffffff1663150b7a026120c36115c3565b8786866040518563ffffffff1660e01b81526004016120e59493929190613021565b602060405180830381600087803b1580156120ff57600080fd5b505af192505050801561213057506040513d601f19601f8201168201806040525081019061212d9190612a60565b60015b6121b3573d8060008114612160576040519150601f19603f3d011682016040523d82523d6000602084013e612165565b606091505b506000815114156121ab576040517f08c379a00000000000000000000000000000000000000000000000000000000081526004016121a2906130aa565b60405180910390fd5b805181602001fd5b63150b7a0260e01b7bffffffffffffffffffffffffffffffffffffffffffffffffffffffff1916817bffffffffffffffffffffffffffffffffffffffffffffffffffffffff191614915050612208565b600190505b949350505050565b60606040518060400160405280600781526020017f697066733a2f2f00000000000000000000000000000000000000000000000000815250905090565b606061225882611557565b612297576040517f08c379a000000000000000000000000000000000000000000000000000000000815260040161228e906132ca565b60405180910390fd5b60006122a1612210565b905060008151116122c157604051806020016040528060008152506122ec565b806122cb84612473565b6040516020016122dc929190612fe2565b6040516020818303038152906040525b915050919050565b6122fe83836119e0565b61230b6000848484612079565b61234a576040517f08c379a0000000000000000000000000000000000000000000000000000000008152600401612341906130aa565b60405180910390fd5b505050565b600061235a82610c86565b905061236881600084612021565b6123736000836115cb565b6001600360008373ffffffffffffffffffffffffffffffffffffffff1673ffffffffffffffffffffffffffffffffffffffff16815260200190815260200160002060008282546123c39190613516565b925050819055506002600083815260200190815260200160002060006101000a81549073ffffffffffffffffffffffffffffffffffffffff021916905581600073ffffffffffffffffffffffffffffffffffffffff168273ffffffffffffffffffffffffffffffffffffffff167fddf252ad1be2c89b69c2b068fc378daa952ba7f163c4a11628f55a4df523b3ef60405160405180910390a45050565b600080823b905060008111915050919050565b606060008214156124bb576040518060400160405280600181526020017f3000000000000000000000000000000000000000000000000000000000000000815250905061261b565b600082905060005b600082146124ed5780806124d690613663565b915050600a826124e691906134e5565b91506124c3565b60008167ffffffffffffffff81111561252f577f4e487b7100000000000000000000000000000000000000000000000000000000600052604160045260246000fd5b6040519080825280601f01601f1916602001820160405280156125615781602001600182028036833780820191505090505b5090505b600085146126145760018261257a9190613516565b9150600a8561258991906136ac565b6030612595919061348f565b60f81b8183815181106125d1577f4e487b7100000000000000000000000000000000000000000000000000000000600052603260045260246000fd5b60200101907effffffffffffffffffffffffffffffffffffffffffffffffffffffffffffff1916908160001a905350600a8561260d91906134e5565b9450612565565b8093505050505b919050565b82805461262c90613600565b90600052602060002090601f01602090048101928261264e5760008555612695565b82601f1061266757805160ff1916838001178555612695565b82800160010185558215612695579182015b82811115612694578251825591602001919060010190612679565b5b5090506126a291906126e6565b5090565b5080546126b290613600565b6000825580601f106126c457506126e3565b601f0160209004906000526020600020908101906126e291906126e6565b5b50565b5b808211156126ff5760008160009055506001016126e7565b5090565b6000612716612711846133ea565b6133c5565b90508281526020810184848401111561272e57600080fd5b6127398482856135be565b509392505050565b600061275461274f8461341b565b6133c5565b90508281526020810184848401111561276c57600080fd5b6127778482856135be565b509392505050565b60008135905061278e81613de2565b92915050565b6000813590506127a381613df9565b92915050565b6000813590506127b881613e10565b92915050565b6000815190506127cd81613e10565b92915050565b600082601f8301126127e457600080fd5b81356127f4848260208601612703565b91505092915050565b600082601f83011261280e57600080fd5b813561281e848260208601612741565b91505092915050565b60008135905061283681613e27565b92915050565b60006020828403121561284e57600080fd5b600061285c8482850161277f565b91505092915050565b6000806040838503121561287857600080fd5b60006128868582860161277f565b92505060206128978582860161277f565b9150509250929050565b6000806000606084860312156128b657600080fd5b60006128c48682870161277f565b93505060206128d58682870161277f565b92505060406128e686828701612827565b9150509250925092565b6000806000806080858703121561290657600080fd5b60006129148782880161277f565b94505060206129258782880161277f565b935050604061293687828801612827565b925050606085013567ffffffffffffffff81111561295357600080fd5b61295f878288016127d3565b91505092959194509250565b6000806040838503121561297e57600080fd5b600061298c8582860161277f565b925050602061299d85828601612794565b9150509250929050565b600080604083850312156129ba57600080fd5b60006129c88582860161277f565b925050602083013567ffffffffffffffff8111156129e557600080fd5b6129f1858286016127fd565b9150509250929050565b60008060408385031215612a0e57600080fd5b6000612a1c8582860161277f565b9250506020612a2d85828601612827565b9150509250929050565b600060208284031215612a4957600080fd5b6000612a57848285016127a9565b91505092915050565b600060208284031215612a7257600080fd5b6000612a80848285016127be565b91505092915050565b600060208284031215612a9b57600080fd5b600082013567ffffffffffffffff811115612ab557600080fd5b612ac1848285016127fd565b91505092915050565b60008060408385031215612add57600080fd5b600083013567ffffffffffffffff811115612af757600080fd5b612b03858286016127fd565b925050602083013567ffffffffffffffff811115612b2057600080fd5b612b2c858286016127fd565b9150509250929050565b60008060408385031215612b4957600080fd5b600083013567ffffffffffffffff811115612b6357600080fd5b612b6f858286016127fd565b9250506020612b8085828601612827565b9150509250929050565b600060208284031215612b9c57600080fd5b6000612baa84828501612827565b91505092915050565b612bbc8161354a565b82525050565b612bcb8161355c565b82525050565b6000612bdc8261344c565b612be68185613462565b9350612bf68185602086016135cd565b612bff81613799565b840191505092915050565b6000612c1582613457565b612c1f8185613473565b9350612c2f8185602086016135cd565b612c3881613799565b840191505092915050565b6000612c4e82613457565b612c588185613484565b9350612c688185602086016135cd565b80840191505092915050565b6000612c81603283613473565b9150612c8c826137aa565b604082019050919050565b6000612ca4602683613473565b9150612caf826137f9565b604082019050919050565b6000612cc7601c83613473565b9150612cd282613848565b602082019050919050565b6000612cea601383613473565b9150612cf582613871565b602082019050919050565b6000612d0d602483613473565b9150612d188261389a565b604082019050919050565b6000612d30601983613473565b9150612d3b826138e9565b602082019050919050565b6000612d53602c83613473565b9150612d5e82613912565b604082019050919050565b6000612d76603883613473565b9150612d8182613961565b604082019050919050565b6000612d99602a83613473565b9150612da4826139b0565b604082019050919050565b6000612dbc602983613473565b9150612dc7826139ff565b604082019050919050565b6000612ddf602e83613473565b9150612dea82613a4e565b604082019050919050565b6000612e02601483613473565b9150612e0d82613a9d565b602082019050919050565b6000612e25602083613473565b9150612e3082613ac6565b602082019050919050565b6000612e48603183613473565b9150612e5382613aef565b604082019050919050565b6000612e6b602c83613473565b9150612e7682613b3e565b604082019050919050565b6000612e8e602083613473565b9150612e9982613b8d565b602082019050919050565b6000612eb1602983613473565b9150612ebc82613bb6565b604082019050919050565b6000612ed4602f83613473565b9150612edf82613c05565b604082019050919050565b6000612ef7602183613473565b9150612f0282613c54565b604082019050919050565b6000612f1a603183613473565b9150612f2582613ca3565b604082019050919050565b6000612f3d601383613473565b9150612f4882613cf2565b602082019050919050565b6000612f60602c83613473565b9150612f6b82613d1b565b604082019050919050565b6000612f83603083613473565b9150612f8e82613d6a565b604082019050919050565b6000612fa6600f83613473565b9150612fb182613db9565b602082019050919050565b612fc5816135b4565b82525050565b6000612fd78284612c43565b915081905092915050565b6000612fee8285612c43565b9150612ffa8284612c43565b91508190509392505050565b600060208201905061301b6000830184612bb3565b92915050565b60006080820190506130366000830187612bb3565b6130436020830186612bb3565b6130506040830185612fbc565b81810360608301526130628184612bd1565b905095945050505050565b60006020820190506130826000830184612bc2565b92915050565b600060208201905081810360008301526130a28184612c0a565b905092915050565b600060208201905081810360008301526130c381612c74565b9050919050565b600060208201905081810360008301526130e381612c97565b9050919050565b6000602082019050818103600083015261310381612cba565b9050919050565b6000602082019050818103600083015261312381612cdd565b9050919050565b6000602082019050818103600083015261314381612d00565b9050919050565b6000602082019050818103600083015261316381612d23565b9050919050565b6000602082019050818103600083015261318381612d46565b9050919050565b600060208201905081810360008301526131a381612d69565b9050919050565b600060208201905081810360008301526131c381612d8c565b9050919050565b600060208201905081810360008301526131e381612daf565b9050919050565b6000602082019050818103600083015261320381612dd2565b9050919050565b6000602082019050818103600083015261322381612df5565b9050919050565b6000602082019050818103600083015261324381612e18565b9050919050565b6000602082019050818103600083015261326381612e3b565b9050919050565b6000602082019050818103600083015261328381612e5e565b9050919050565b600060208201905081810360008301526132a381612e81565b9050919050565b600060208201905081810360008301526132c381612ea4565b9050919050565b600060208201905081810360008301526132e381612ec7565b9050919050565b6000602082019050818103600083015261330381612eea565b9050919050565b6000602082019050818103600083015261332381612f0d565b9050919050565b6000602082019050818103600083015261334381612f30565b9050919050565b6000602082019050818103600083015261336381612f53565b9050919050565b6000602082019050818103600083015261338381612f76565b9050919050565b600060208201905081810360008301526133a381612f99565b9050919050565b60006020820190506133bf6000830184612fbc565b92915050565b60006133cf6133e0565b90506133db8282613632565b919050565b6000604051905090565b600067ffffffffffffffff8211156134055761340461376a565b5b61340e82613799565b9050602081019050919050565b600067ffffffffffffffff8211156134365761343561376a565b5b61343f82613799565b9050602081019050919050565b600081519050919050565b600081519050919050565b600082825260208201905092915050565b600082825260208201905092915050565b600081905092915050565b600061349a826135b4565b91506134a5836135b4565b9250827fffffffffffffffffffffffffffffffffffffffffffffffffffffffffffffffff038211156134da576134d96136dd565b5b828201905092915050565b60006134f0826135b4565b91506134fb836135b4565b92508261350b5761350a61370c565b5b828204905092915050565b6000613521826135b4565b915061352c836135b4565b92508282101561353f5761353e6136dd565b5b828203905092915050565b600061355582613594565b9050919050565b60008115159050919050565b60007fffffffff0000000000000000000000000000000000000000000000000000000082169050919050565b600073ffffffffffffffffffffffffffffffffffffffff82169050919050565b6000819050919050565b82818337600083830152505050565b60005b838110156135eb5780820151818401526020810190506135d0565b838111156135fa576000848401525b50505050565b6000600282049050600182168061361857607f821691505b6020821081141561362c5761362b61373b565b5b50919050565b61363b82613799565b810181811067ffffffffffffffff8211171561365a5761365961376a565b5b80604052505050565b600061366e826135b4565b91507fffffffffffffffffffffffffffffffffffffffffffffffffffffffffffffffff8214156136a1576136a06136dd565b5b600182019050919050565b60006136b7826135b4565b91506136c2836135b4565b9250826136d2576136d161370c565b5b828206905092915050565b7f4e487b7100000000000000000000000000000000000000000000000000000000600052601160045260246000fd5b7f4e487b7100000000000000000000000000000000000000000000000000000000600052601260045260246000fd5b7f4e487b7100000000000000000000000000000000000000000000000000000000600052602260045260246000fd5b7f4e487b7100000000000000000000000000000000000000000000000000000000600052604160045260246000fd5b6000601f19601f8301169050919050565b7f4552433732313a207472616e7366657220746f206e6f6e20455243373231526560008201527f63656976657220696d706c656d656e7465720000000000000000000000000000602082015250565b7f4f776e61626c653a206e6577206f776e657220697320746865207a65726f206160008201527f6464726573730000000000000000000000000000000000000000000000000000602082015250565b7f4552433732313a20746f6b656e20616c7265616479206d696e74656400000000600082015250565b7f4e465420616c7265616479206275726e65642100000000000000000000000000600082015250565b7f4552433732313a207472616e7366657220746f20746865207a65726f2061646460008201527f7265737300000000000000000000000000000000000000000000000000000000602082015250565b7f4552433732313a20617070726f766520746f2063616c6c657200000000000000600082015250565b7f4552433732313a206f70657261746f7220717565727920666f72206e6f6e657860008201527f697374656e7420746f6b656e0000000000000000000000000000000000000000602082015250565b7f4552433732313a20617070726f76652063616c6c6572206973206e6f74206f7760008201527f6e6572206e6f7220617070726f76656420666f7220616c6c0000000000000000602082015250565b7f4552433732313a2062616c616e636520717565727920666f7220746865207a6560008201527f726f206164647265737300000000000000000000000000000000000000000000602082015250565b7f4552433732313a206f776e657220717565727920666f72206e6f6e657869737460008201527f656e7420746f6b656e0000000000000000000000000000000000000000000000602082015250565b7f45524337323155524953746f726167653a2055524920736574206f66206e6f6e60008201527f6578697374656e7420746f6b656e000000000000000000000000000000000000602082015250565b7f5472616e73666572206e6f7420616c6c6f776564000000000000000000000000600082015250565b7f4552433732313a206d696e7420746f20746865207a65726f2061646472657373600082015250565b7f45524337323155524953746f726167653a2055524920717565727920666f722060008201527f6e6f6e6578697374656e7420746f6b656e000000000000000000000000000000602082015250565b7f4552433732313a20617070726f76656420717565727920666f72206e6f6e657860008201527f697374656e7420746f6b656e0000000000000000000000000000000000000000602082015250565b7f4f776e61626c653a2063616c6c6572206973206e6f7420746865206f776e6572600082015250565b7f4552433732313a207472616e73666572206f6620746f6b656e2074686174206960008201527f73206e6f74206f776e0000000000000000000000000000000000000000000000602082015250565b7f4552433732314d657461646174613a2055524920717565727920666f72206e6f60008201527f6e6578697374656e7420746f6b656e0000000000000000000000000000000000602082015250565b7f4552433732313a20617070726f76616c20746f2063757272656e74206f776e6560008201527f7200000000000000000000000000000000000000000000000000000000000000602082015250565b7f4552433732313a207472616e736665722063616c6c6572206973206e6f74206f60008201527f776e6572206e6f7220617070726f766564000000000000000000000000000000602082015250565b7f4e465420616c7265616479206d696e7465642100000000000000000000000000600082015250565b7f596f75206d757374206f776e2074686973206e756d62657220696e206f72646560008201527f7220746f206275726e2069740000000000000000000000000000000000000000602082015250565b7f4552433732314275726e61626c653a2063616c6c6572206973206e6f74206f7760008201527f6e6572206e6f7220617070726f76656400000000000000000000000000000000602082015250565b7f4e65656420746f20706179207570210000000000000000000000000000000000600082015250565b613deb8161354a565b8114613df657600080fd5b50565b613e028161355c565b8114613e0d57600080fd5b50565b613e1981613568565b8114613e2457600080fd5b50565b613e30816135b4565b8114613e3b57600080fd5b5056fea2646970667358221220148d3a26fd227d8b9381f1d8618ab0144c5b88e6d4b85da4bac4f024c32b6ba064736f6c63430008040033",
  "linkReferences": {},
  "deployedLinkReferences": {}
}