{
  "_format": "hh-sol-artifact-1",
  "contractName": "FiredGuys",
  "sourceName": "contracts/MyNFT.sol",
  "abi": [
    {
      "inputs": [],
      "stateMutability": "nonpayable",
      "type": "constructor"
    },
    {
      "anonymous": false,
      "inputs": [
        {
          "indexed": true,
          "internalType": "address",
          "name": "owner",
          "type": "address"
        },
        {
          "indexed": true,
          "internalType": "address",
          "name": "approved",
          "type": "address"
        },
        {
          "indexed": true,
          "internalType": "uint256",
          "name": "tokenId",
          "type": "uint256"
        }
      ],
      "name": "Approval",
      "type": "event"
    },
    {
      "anonymous": false,
      "inputs": [
        {
          "indexed": true,
          "internalType": "address",
          "name": "owner",
          "type": "address"
        },
        {
          "indexed": true,
          "internalType": "address",
          "name": "operator",
          "type": "address"
        },
        {
          "indexed": false,
          "internalType": "bool",
          "name": "approved",
          "type": "bool"
        }
      ],
      "name": "ApprovalForAll",
      "type": "event"
    },
    {
      "anonymous": false,
      "inputs": [
        {
          "indexed": true,
          "internalType": "address",
          "name": "previousOwner",
          "type": "address"
        },
        {
          "indexed": true,
          "internalType": "address",
          "name": "newOwner",
          "type": "address"
        }
      ],
      "name": "OwnershipTransferred",
      "type": "event"
    },
    {
      "anonymous": false,
      "inputs": [
        {
          "indexed": true,
          "internalType": "address",
          "name": "from",
          "type": "address"
        },
        {
          "indexed": true,
          "internalType": "address",
          "name": "to",
          "type": "address"
        },
        {
          "indexed": true,
          "internalType": "uint256",
          "name": "tokenId",
          "type": "uint256"
        }
      ],
      "name": "Transfer",
      "type": "event"
    },
    {
      "inputs": [
        {
          "internalType": "address",
          "name": "to",
          "type": "address"
        },
        {
          "internalType": "uint256",
          "name": "tokenId",
          "type": "uint256"
        }
      ],
      "name": "approve",
      "outputs": [],
      "stateMutability": "nonpayable",
      "type": "function"
    },
    {
      "inputs": [
        {
          "internalType": "address",
          "name": "owner",
          "type": "address"
        }
      ],
      "name": "balanceOf",
      "outputs": [
        {
          "internalType": "uint256",
          "name": "",
          "type": "uint256"
        }
      ],
      "stateMutability": "view",
      "type": "function"
    },
    {
      "inputs": [
        {
          "internalType": "uint256",
          "name": "tokenId",
          "type": "uint256"
        }
      ],
      "name": "burn",
      "outputs": [],
      "stateMutability": "nonpayable",
      "type": "function"
    },
    {
      "inputs": [
        {
          "internalType": "string",
          "name": "str1",
          "type": "string"
        },
        {
          "internalType": "string",
          "name": "str2",
          "type": "string"
        }
      ],
      "name": "compare",
      "outputs": [
        {
          "internalType": "bool",
          "name": "",
          "type": "bool"
        }
      ],
      "stateMutability": "pure",
      "type": "function"
    },
    {
      "inputs": [],
      "name": "count",
      "outputs": [
        {
          "internalType": "uint256",
          "name": "",
          "type": "uint256"
        }
      ],
      "stateMutability": "view",
      "type": "function"
    },
    {
      "inputs": [],
      "name": "count_burned",
      "outputs": [
        {
          "internalType": "uint256",
          "name": "",
          "type": "uint256"
        }
      ],
      "stateMutability": "view",
      "type": "function"
    },
    {
      "inputs": [
        {
          "internalType": "uint256",
          "name": "tokenId",
          "type": "uint256"
        }
      ],
      "name": "getApproved",
      "outputs": [
        {
          "internalType": "address",
          "name": "",
          "type": "address"
        }
      ],
      "stateMutability": "view",
      "type": "function"
    },
    {
      "inputs": [
        {
          "internalType": "address",
          "name": "owner",
          "type": "address"
        },
        {
          "internalType": "address",
          "name": "operator",
          "type": "address"
        }
      ],
      "name": "isApprovedForAll",
      "outputs": [
        {
          "internalType": "bool",
          "name": "",
          "type": "bool"
        }
      ],
      "stateMutability": "view",
      "type": "function"
    },
    {
      "inputs": [
        {
          "internalType": "string",
          "name": "uri",
          "type": "string"
        }
      ],
      "name": "isContentBurned",
      "outputs": [
        {
          "internalType": "bool",
          "name": "",
          "type": "bool"
        }
      ],
      "stateMutability": "view",
      "type": "function"
    },
    {
      "inputs": [
        {
          "internalType": "string",
          "name": "uri",
          "type": "string"
        }
      ],
      "name": "isContentOwned",
      "outputs": [
        {
          "internalType": "bool",
          "name": "",
          "type": "bool"
        }
      ],
      "stateMutability": "view",
      "type": "function"
    },
    {
      "inputs": [],
      "name": "name",
      "outputs": [
        {
          "internalType": "string",
          "name": "",
          "type": "string"
        }
      ],
      "stateMutability": "view",
      "type": "function"
    },
    {
      "inputs": [],
      "name": "owner",
      "outputs": [
        {
          "internalType": "address",
          "name": "",
          "type": "address"
        }
      ],
      "stateMutability": "view",
      "type": "function"
    },
    {
      "inputs": [
        {
          "internalType": "uint256",
          "name": "tokenId",
          "type": "uint256"
        }
      ],
      "name": "ownerOf",
      "outputs": [
        {
          "internalType": "address",
          "name": "",
          "type": "address"
        }
      ],
      "stateMutability": "view",
      "type": "function"
    },
    {
      "inputs": [
        {
          "internalType": "string",
          "name": "metadataURI",
          "type": "string"
        },
        {
          "internalType": "uint256",
          "name": "tokenId",
          "type": "uint256"
        }
      ],
      "name": "payToBurn",
      "outputs": [
        {
          "internalType": "uint256",
          "name": "",
          "type": "uint256"
        }
      ],
      "stateMutability": "payable",
      "type": "function"
    },
    {
      "inputs": [
        {
          "internalType": "address",
          "name": "recipient",
          "type": "address"
        },
        {
          "internalType": "string",
          "name": "metadataURI",
          "type": "string"
        }
      ],
      "name": "payToMint",
      "outputs": [
        {
          "internalType": "uint256",
          "name": "",
          "type": "uint256"
        }
      ],
      "stateMutability": "payable",
      "type": "function"
    },
    {
      "inputs": [],
      "name": "renounceOwnership",
      "outputs": [],
      "stateMutability": "nonpayable",
      "type": "function"
    },
    {
      "inputs": [
        {
          "internalType": "address",
          "name": "to",
          "type": "address"
        },
        {
          "internalType": "string",
          "name": "uri",
          "type": "string"
        }
      ],
      "name": "safeMint",
      "outputs": [],
      "stateMutability": "nonpayable",
      "type": "function"
    },
    {
      "inputs": [
        {
          "internalType": "address",
          "name": "from",
          "type": "address"
        },
        {
          "internalType": "address",
          "name": "to",
          "type": "address"
        },
        {
          "internalType": "uint256",
          "name": "tokenId",
          "type": "uint256"
        }
      ],
      "name": "safeTransferFrom",
      "outputs": [],
      "stateMutability": "nonpayable",
      "type": "function"
    },
    {
      "inputs": [
        {
          "internalType": "address",
          "name": "from",
          "type": "address"
        },
        {
          "internalType": "address",
          "name": "to",
          "type": "address"
        },
        {
          "internalType": "uint256",
          "name": "tokenId",
          "type": "uint256"
        },
        {
          "internalType": "bytes",
          "name": "_data",
          "type": "bytes"
        }
      ],
      "name": "safeTransferFrom",
      "outputs": [],
      "stateMutability": "nonpayable",
      "type": "function"
    },
    {
      "inputs": [
        {
          "internalType": "address",
          "name": "operator",
          "type": "address"
        },
        {
          "internalType": "bool",
          "name": "approved",
          "type": "bool"
        }
      ],
      "name": "setApprovalForAll",
      "outputs": [],
      "stateMutability": "nonpayable",
      "type": "function"
    },
    {
      "inputs": [
        {
          "internalType": "bytes4",
          "name": "interfaceId",
          "type": "bytes4"
        }
      ],
      "name": "supportsInterface",
      "outputs": [
        {
          "internalType": "bool",
          "name": "",
          "type": "bool"
        }
      ],
      "stateMutability": "view",
      "type": "function"
    },
    {
      "inputs": [],
      "name": "symbol",
      "outputs": [
        {
          "internalType": "string",
          "name": "",
          "type": "string"
        }
      ],
      "stateMutability": "view",
      "type": "function"
    },
    {
      "inputs": [
        {
          "internalType": "uint256",
          "name": "tokenId",
          "type": "uint256"
        }
      ],
      "name": "tokenURI",
      "outputs": [
        {
          "internalType": "string",
          "name": "",
          "type": "string"
        }
      ],
      "stateMutability": "view",
      "type": "function"
    },
    {
      "inputs": [
        {
          "internalType": "address",
          "name": "from",
          "type": "address"
        },
        {
          "internalType": "address",
          "name": "to",
          "type": "address"
        },
        {
          "internalType": "uint256",
          "name": "tokenId",
          "type": "uint256"
        }
      ],
      "name": "transferFrom",
      "outputs": [],
      "stateMutability": "nonpayable",
      "type": "function"
    },
    {
      "inputs": [
        {
          "internalType": "address",
          "name": "recipient",
          "type": "address"
        },
        {
          "internalType": "uint256",
          "name": "tokenId",
          "type": "uint256"
        }
      ],
      "name": "transferNFT",
      "outputs": [],
      "stateMutability": "nonpayable",
      "type": "function"
    },
    {
      "inputs": [
        {
          "internalType": "address",
          "name": "newOwner",
          "type": "address"
        }
      ],
      "name": "transferOwnership",
      "outputs": [],
      "stateMutability": "nonpayable",
      "type": "function"
    }
  ],
  "bytecode": "0x60806040523480156200001157600080fd5b506040518060400160405280600981526020017f46697265644775797300000000000000000000000000000000000000000000008152506040518060400160405280600381526020017f4659520000000000000000000000000000000000000000000000000000000000815250816000908051906020019062000096929190620001a6565b508060019080519060200190620000af929190620001a6565b505050620000d2620000c6620000d860201b60201c565b620000e060201b60201c565b620002bb565b600033905090565b6000600760009054906101000a900473ffffffffffffffffffffffffffffffffffffffff16905081600760006101000a81548173ffffffffffffffffffffffffffffffffffffffff021916908373ffffffffffffffffffffffffffffffffffffffff1602179055508173ffffffffffffffffffffffffffffffffffffffff168173ffffffffffffffffffffffffffffffffffffffff167f8be0079c531659141344cd1fd0a4f28419497f9722a3daafe3b4186f6b6457e060405160405180910390a35050565b828054620001b49062000256565b90600052602060002090601f016020900481019282620001d8576000855562000224565b82601f10620001f357805160ff191683800117855562000224565b8280016001018555821562000224579182015b828111156200022357825182559160200191906001019062000206565b5b50905062000233919062000237565b5090565b5b808211156200025257600081600090555060010162000238565b5090565b600060028204905060018216806200026f57607f821691505b602082108114156200028657620002856200028c565b5b50919050565b7f4e487b7100000000000000000000000000000000000000000000000000000000600052602260045260246000fd5b613dbf80620002cb6000396000f3fe6080604052600436106101815760003560e01c8063715018a6116100d1578063a22cb4651161008a578063d204c45e11610064578063d204c45e1461059e578063e985e9c5146105c7578063f2fde38b14610604578063fc31f32f1461062d57610181565b8063a22cb4651461050f578063b88d4fde14610538578063c87b56dd1461056157610181565b8063715018a61461040c5780638da5cb5b1461042357806394ab67fe1461044e57806395d89b4114610477578063999fc5a7146104a25780639f1cabc6146104d257610181565b806339d3395c1161013e57806342966c681161011857806342966c6814610339578063615fd9e2146103625780636352211e1461039257806370a08231146103cf57610181565b806339d3395c146102a85780633a96fdd7146102d357806342842e0e1461031057610181565b806301ffc9a71461018657806306661abd146101c357806306fdde03146101ee578063081812fc14610219578063095ea7b31461025657806323b872dd1461027f575b600080fd5b34801561019257600080fd5b506101ad60048036038101906101a89190612982565b61066a565b6040516101ba9190612fb8565b60405180910390f35b3480156101cf57600080fd5b506101d861074c565b6040516101e591906132f5565b60405180910390f35b3480156101fa57600080fd5b5061020361075d565b6040516102109190612fd3565b60405180910390f35b34801561022557600080fd5b50610240600480360381019061023b9190612ad5565b6107ef565b60405161024d9190612f51565b60405180910390f35b34801561026257600080fd5b5061027d60048036038101906102789190612946565b610874565b005b34801561028b57600080fd5b506102a660048036038101906102a191906127ec565b61098c565b005b3480156102b457600080fd5b506102bd6109ec565b6040516102ca91906132f5565b60405180910390f35b3480156102df57600080fd5b506102fa60048036038101906102f59190612a15565b6109fd565b6040516103079190612fb8565b60405180910390f35b34801561031c57600080fd5b50610337600480360381019061033291906127ec565b610a56565b005b34801561034557600080fd5b50610360600480360381019061035b9190612ad5565b610a76565b005b61037c600480360381019061037791906128f2565b610ad2565b60405161038991906132f5565b60405180910390f35b34801561039e57600080fd5b506103b960048036038101906103b49190612ad5565b610bfe565b6040516103c69190612f51565b60405180910390f35b3480156103db57600080fd5b506103f660048036038101906103f19190612787565b610cb0565b60405161040391906132f5565b60405180910390f35b34801561041857600080fd5b50610421610d68565b005b34801561042f57600080fd5b50610438610df0565b6040516104459190612f51565b60405180910390f35b34801561045a57600080fd5b5061047560048036038101906104709190612946565b610e1a565b005b34801561048357600080fd5b5061048c610e9f565b6040516104999190612fd3565b60405180910390f35b6104bc60048036038101906104b79190612a81565b610f31565b6040516104c991906132f5565b60405180910390f35b3480156104de57600080fd5b506104f960048036038101906104f491906129d4565b6110b9565b6040516105069190612fb8565b60405180910390f35b34801561051b57600080fd5b50610536600480360381019061053191906128b6565b6110f4565b005b34801561054457600080fd5b5061055f600480360381019061055a919061283b565b61110a565b005b34801561056d57600080fd5b5061058860048036038101906105839190612ad5565b61116c565b6040516105959190612fd3565b60405180910390f35b3480156105aa57600080fd5b506105c560048036038101906105c091906128f2565b61117e565b005b3480156105d357600080fd5b506105ee60048036038101906105e991906127b0565b611263565b6040516105fb9190612fb8565b60405180910390f35b34801561061057600080fd5b5061062b60048036038101906106269190612787565b6112f7565b005b34801561063957600080fd5b50610654600480360381019061064f91906129d4565b6113ef565b6040516106619190612fb8565b60405180910390f35b60007f80ac58cd000000000000000000000000000000000000000000000000000000007bffffffffffffffffffffffffffffffffffffffffffffffffffffffff1916827bffffffffffffffffffffffffffffffffffffffffffffffffffffffff1916148061073557507f5b5e139f000000000000000000000000000000000000000000000000000000007bffffffffffffffffffffffffffffffffffffffffffffffffffffffff1916827bffffffffffffffffffffffffffffffffffffffffffffffffffffffff1916145b8061074557506107448261142a565b5b9050919050565b60006107586008611494565b905090565b60606000805461076c9061354b565b80601f01602080910402602001604051908101604052809291908181526020018280546107989061354b565b80156107e55780601f106107ba576101008083540402835291602001916107e5565b820191906000526020600020905b8154815290600101906020018083116107c857829003601f168201915b5050505050905090565b60006107fa826114a2565b610839576040517f08c379a0000000000000000000000000000000000000000000000000000000008152600401610830906131b5565b60405180910390fd5b6004600083815260200190815260200160002060009054906101000a900473ffffffffffffffffffffffffffffffffffffffff169050919050565b600061087f82610bfe565b90508073ffffffffffffffffffffffffffffffffffffffff168373ffffffffffffffffffffffffffffffffffffffff1614156108f0576040517f08c379a00000000000000000000000000000000000000000000000000000000081526004016108e790613235565b60405180910390fd5b8073ffffffffffffffffffffffffffffffffffffffff1661090f61150e565b73ffffffffffffffffffffffffffffffffffffffff16148061093e575061093d8161093861150e565b611263565b5b61097d576040517f08c379a0000000000000000000000000000000000000000000000000000000008152600401610974906130d5565b60405180910390fd5b6109878383611516565b505050565b61099d61099761150e565b826115cf565b6109dc576040517f08c379a00000000000000000000000000000000000000000000000000000000081526004016109d390613255565b60405180910390fd5b6109e78383836116ad565b505050565b60006109f86009611494565b905090565b600081604051602001610a109190612f16565b6040516020818303038152906040528051906020012083604051602001610a379190612f16565b6040516020818303038152906040528051906020012014905092915050565b610a718383836040518060200160405280600081525061110a565b505050565b610a87610a8161150e565b826115cf565b610ac6576040517f08c379a0000000000000000000000000000000000000000000000000000000008152600401610abd906132b5565b60405180910390fd5b610acf81611909565b50565b60006001600a83604051610ae69190612f16565b908152602001604051809103902060009054906101000a900460ff1660ff161415610b46576040517f08c379a0000000000000000000000000000000000000000000000000000000008152600401610b3d90613275565b60405180910390fd5b66b1a2bc2ec50000341015610b90576040517f08c379a0000000000000000000000000000000000000000000000000000000008152600401610b87906132d5565b60405180910390fd5b6000610b9c6008611494565b9050610ba86008611915565b6001600a84604051610bba9190612f16565b908152602001604051809103902060006101000a81548160ff021916908360ff160217905550610bea848261192b565b610bf48184611af9565b8091505092915050565b6000806002600084815260200190815260200160002060009054906101000a900473ffffffffffffffffffffffffffffffffffffffff169050600073ffffffffffffffffffffffffffffffffffffffff168173ffffffffffffffffffffffffffffffffffffffff161415610ca7576040517f08c379a0000000000000000000000000000000000000000000000000000000008152600401610c9e90613115565b60405180910390fd5b80915050919050565b60008073ffffffffffffffffffffffffffffffffffffffff168273ffffffffffffffffffffffffffffffffffffffff161415610d21576040517f08c379a0000000000000000000000000000000000000000000000000000000008152600401610d18906130f5565b60405180910390fd5b600360008373ffffffffffffffffffffffffffffffffffffffff1673ffffffffffffffffffffffffffffffffffffffff168152602001908152602001600020549050919050565b610d7061150e565b73ffffffffffffffffffffffffffffffffffffffff16610d8e610df0565b73ffffffffffffffffffffffffffffffffffffffff1614610de4576040517f08c379a0000000000000000000000000000000000000000000000000000000008152600401610ddb906131d5565b60405180910390fd5b610dee6000611b6d565b565b6000600760009054906101000a900473ffffffffffffffffffffffffffffffffffffffff16905090565b610e2381610bfe565b73ffffffffffffffffffffffffffffffffffffffff163373ffffffffffffffffffffffffffffffffffffffff1614610e90576040517f08c379a0000000000000000000000000000000000000000000000000000000008152600401610e8790613155565b60405180910390fd5b610e9b3383836116ad565b5050565b606060018054610eae9061354b565b80601f0160208091040260200160405190810160405280929190818152602001828054610eda9061354b565b8015610f275780601f10610efc57610100808354040283529160200191610f27565b820191906000526020600020905b815481529060010190602001808311610f0a57829003601f168201915b5050505050905090565b60006001600b84604051610f459190612f16565b908152602001604051809103902060009054906101000a900460ff1660ff161415610fa5576040517f08c379a0000000000000000000000000000000000000000000000000000000008152600401610f9c90613055565b60405180910390fd5b66b1a2bc2ec50000341015610fef576040517f08c379a0000000000000000000000000000000000000000000000000000000008152600401610fe6906132d5565b60405180910390fd5b610ff882610bfe565b73ffffffffffffffffffffffffffffffffffffffff163373ffffffffffffffffffffffffffffffffffffffff1614611065576040517f08c379a000000000000000000000000000000000000000000000000000000000815260040161105c90613295565b60405180910390fd5b6001600b846040516110779190612f16565b908152602001604051809103902060006101000a81548160ff021916908360ff1602179055506110a76009611915565b6110b082611909565b81905092915050565b60006001600a836040516110cd9190612f16565b908152602001604051809103902060009054906101000a900460ff1660ff16149050919050565b6111066110ff61150e565b8383611c33565b5050565b61111b61111561150e565b836115cf565b61115a576040517f08c379a000000000000000000000000000000000000000000000000000000000815260040161115190613255565b60405180910390fd5b61116684848484611da0565b50505050565b606061117782611dfc565b9050919050565b61118661150e565b73ffffffffffffffffffffffffffffffffffffffff166111a4610df0565b73ffffffffffffffffffffffffffffffffffffffff16146111fa576040517f08c379a00000000000000000000000000000000000000000000000000000000081526004016111f1906131d5565b60405180910390fd5b60006112066008611494565b90506112126008611915565b61121c8382611f4e565b6112268183611af9565b6001600a836040516112389190612f16565b908152602001604051809103902060006101000a81548160ff021916908360ff160217905550505050565b6000600560008473ffffffffffffffffffffffffffffffffffffffff1673ffffffffffffffffffffffffffffffffffffffff16815260200190815260200160002060008373ffffffffffffffffffffffffffffffffffffffff1673ffffffffffffffffffffffffffffffffffffffff16815260200190815260200160002060009054906101000a900460ff16905092915050565b6112ff61150e565b73ffffffffffffffffffffffffffffffffffffffff1661131d610df0565b73ffffffffffffffffffffffffffffffffffffffff1614611373576040517f08c379a000000000000000000000000000000000000000000000000000000000815260040161136a906131d5565b60405180910390fd5b600073ffffffffffffffffffffffffffffffffffffffff168173ffffffffffffffffffffffffffffffffffffffff1614156113e3576040517f08c379a00000000000000000000000000000000000000000000000000000000081526004016113da90613015565b60405180910390fd5b6113ec81611b6d565b50565b60006001600b836040516114039190612f16565b908152602001604051809103902060009054906101000a900460ff1660ff16149050919050565b60007f01ffc9a7000000000000000000000000000000000000000000000000000000007bffffffffffffffffffffffffffffffffffffffffffffffffffffffff1916827bffffffffffffffffffffffffffffffffffffffffffffffffffffffff1916149050919050565b600081600001549050919050565b60008073ffffffffffffffffffffffffffffffffffffffff166002600084815260200190815260200160002060009054906101000a900473ffffffffffffffffffffffffffffffffffffffff1673ffffffffffffffffffffffffffffffffffffffff1614159050919050565b600033905090565b816004600083815260200190815260200160002060006101000a81548173ffffffffffffffffffffffffffffffffffffffff021916908373ffffffffffffffffffffffffffffffffffffffff160217905550808273ffffffffffffffffffffffffffffffffffffffff1661158983610bfe565b73ffffffffffffffffffffffffffffffffffffffff167f8c5be1e5ebec7d5bd14f71427d1e84f3dd0314c0f7b2291e5b200ac8c7c3b92560405160405180910390a45050565b60006115da826114a2565b611619576040517f08c379a0000000000000000000000000000000000000000000000000000000008152600401611610906130b5565b60405180910390fd5b600061162483610bfe565b90508073ffffffffffffffffffffffffffffffffffffffff168473ffffffffffffffffffffffffffffffffffffffff16148061169357508373ffffffffffffffffffffffffffffffffffffffff1661167b846107ef565b73ffffffffffffffffffffffffffffffffffffffff16145b806116a457506116a38185611263565b5b91505092915050565b8273ffffffffffffffffffffffffffffffffffffffff166116cd82610bfe565b73ffffffffffffffffffffffffffffffffffffffff1614611723576040517f08c379a000000000000000000000000000000000000000000000000000000000815260040161171a906131f5565b60405180910390fd5b600073ffffffffffffffffffffffffffffffffffffffff168273ffffffffffffffffffffffffffffffffffffffff161415611793576040517f08c379a000000000000000000000000000000000000000000000000000000000815260040161178a90613075565b60405180910390fd5b61179e838383611f6c565b6117a9600082611516565b6001600360008573ffffffffffffffffffffffffffffffffffffffff1673ffffffffffffffffffffffffffffffffffffffff16815260200190815260200160002060008282546117f99190613461565b925050819055506001600360008473ffffffffffffffffffffffffffffffffffffffff1673ffffffffffffffffffffffffffffffffffffffff168152602001908152602001600020600082825461185091906133da565b92505081905550816002600083815260200190815260200160002060006101000a81548173ffffffffffffffffffffffffffffffffffffffff021916908373ffffffffffffffffffffffffffffffffffffffff160217905550808273ffffffffffffffffffffffffffffffffffffffff168473ffffffffffffffffffffffffffffffffffffffff167fddf252ad1be2c89b69c2b068fc378daa952ba7f163c4a11628f55a4df523b3ef60405160405180910390a4505050565b61191281611f71565b50565b6001816000016000828254019250508190555050565b600073ffffffffffffffffffffffffffffffffffffffff168273ffffffffffffffffffffffffffffffffffffffff16141561199b576040517f08c379a000000000000000000000000000000000000000000000000000000000815260040161199290613175565b60405180910390fd5b6119a4816114a2565b156119e4576040517f08c379a00000000000000000000000000000000000000000000000000000000081526004016119db90613035565b60405180910390fd5b6119f060008383611f6c565b6001600360008473ffffffffffffffffffffffffffffffffffffffff1673ffffffffffffffffffffffffffffffffffffffff1681526020019081526020016000206000828254611a4091906133da565b92505081905550816002600083815260200190815260200160002060006101000a81548173ffffffffffffffffffffffffffffffffffffffff021916908373ffffffffffffffffffffffffffffffffffffffff160217905550808273ffffffffffffffffffffffffffffffffffffffff16600073ffffffffffffffffffffffffffffffffffffffff167fddf252ad1be2c89b69c2b068fc378daa952ba7f163c4a11628f55a4df523b3ef60405160405180910390a45050565b611b02826114a2565b611b41576040517f08c379a0000000000000000000000000000000000000000000000000000000008152600401611b3890613135565b60405180910390fd5b80600660008481526020019081526020016000209080519060200190611b6892919061256b565b505050565b6000600760009054906101000a900473ffffffffffffffffffffffffffffffffffffffff16905081600760006101000a81548173ffffffffffffffffffffffffffffffffffffffff021916908373ffffffffffffffffffffffffffffffffffffffff1602179055508173ffffffffffffffffffffffffffffffffffffffff168173ffffffffffffffffffffffffffffffffffffffff167f8be0079c531659141344cd1fd0a4f28419497f9722a3daafe3b4186f6b6457e060405160405180910390a35050565b8173ffffffffffffffffffffffffffffffffffffffff168373ffffffffffffffffffffffffffffffffffffffff161415611ca2576040517f08c379a0000000000000000000000000000000000000000000000000000000008152600401611c9990613095565b60405180910390fd5b80600560008573ffffffffffffffffffffffffffffffffffffffff1673ffffffffffffffffffffffffffffffffffffffff16815260200190815260200160002060008473ffffffffffffffffffffffffffffffffffffffff1673ffffffffffffffffffffffffffffffffffffffff16815260200190815260200160002060006101000a81548160ff0219169083151502179055508173ffffffffffffffffffffffffffffffffffffffff168373ffffffffffffffffffffffffffffffffffffffff167f17307eab39ab6107e8899845ad3d59bd9653f200f220920489ca2b5937696c3183604051611d939190612fb8565b60405180910390a3505050565b611dab8484846116ad565b611db784848484611fc4565b611df6576040517f08c379a0000000000000000000000000000000000000000000000000000000008152600401611ded90612ff5565b60405180910390fd5b50505050565b6060611e07826114a2565b611e46576040517f08c379a0000000000000000000000000000000000000000000000000000000008152600401611e3d90613195565b60405180910390fd5b6000600660008481526020019081526020016000208054611e669061354b565b80601f0160208091040260200160405190810160405280929190818152602001828054611e929061354b565b8015611edf5780601f10611eb457610100808354040283529160200191611edf565b820191906000526020600020905b815481529060010190602001808311611ec257829003601f168201915b505050505090506000611ef061215b565b9050600081511415611f06578192505050611f49565b600082511115611f3b578082604051602001611f23929190612f2d565b60405160208183030381529060405292505050611f49565b611f4484612198565b925050505b919050565b611f6882826040518060200160405280600081525061223f565b5050565b505050565b611f7a8161229a565b6000600660008381526020019081526020016000208054611f9a9061354b565b905014611fc157600660008281526020019081526020016000206000611fc091906125f1565b5b50565b6000611fe58473ffffffffffffffffffffffffffffffffffffffff166123ab565b1561214e578373ffffffffffffffffffffffffffffffffffffffff1663150b7a0261200e61150e565b8786866040518563ffffffff1660e01b81526004016120309493929190612f6c565b602060405180830381600087803b15801561204a57600080fd5b505af192505050801561207b57506040513d601f19601f8201168201806040525081019061207891906129ab565b60015b6120fe573d80600081146120ab576040519150601f19603f3d011682016040523d82523d6000602084013e6120b0565b606091505b506000815114156120f6576040517f08c379a00000000000000000000000000000000000000000000000000000000081526004016120ed90612ff5565b60405180910390fd5b805181602001fd5b63150b7a0260e01b7bffffffffffffffffffffffffffffffffffffffffffffffffffffffff1916817bffffffffffffffffffffffffffffffffffffffffffffffffffffffff191614915050612153565b600190505b949350505050565b60606040518060400160405280600781526020017f697066733a2f2f00000000000000000000000000000000000000000000000000815250905090565b60606121a3826114a2565b6121e2576040517f08c379a00000000000000000000000000000000000000000000000000000000081526004016121d990613215565b60405180910390fd5b60006121ec61215b565b9050600081511161220c5760405180602001604052806000815250612237565b80612216846123be565b604051602001612227929190612f2d565b6040516020818303038152906040525b915050919050565b612249838361192b565b6122566000848484611fc4565b612295576040517f08c379a000000000000000000000000000000000000000000000000000000000815260040161228c90612ff5565b60405180910390fd5b505050565b60006122a582610bfe565b90506122b381600084611f6c565b6122be600083611516565b6001600360008373ffffffffffffffffffffffffffffffffffffffff1673ffffffffffffffffffffffffffffffffffffffff168152602001908152602001600020600082825461230e9190613461565b925050819055506002600083815260200190815260200160002060006101000a81549073ffffffffffffffffffffffffffffffffffffffff021916905581600073ffffffffffffffffffffffffffffffffffffffff168273ffffffffffffffffffffffffffffffffffffffff167fddf252ad1be2c89b69c2b068fc378daa952ba7f163c4a11628f55a4df523b3ef60405160405180910390a45050565b600080823b905060008111915050919050565b60606000821415612406576040518060400160405280600181526020017f30000000000000000000000000000000000000000000000000000000000000008152509050612566565b600082905060005b60008214612438578080612421906135ae565b915050600a826124319190613430565b915061240e565b60008167ffffffffffffffff81111561247a577f4e487b7100000000000000000000000000000000000000000000000000000000600052604160045260246000fd5b6040519080825280601f01601f1916602001820160405280156124ac5781602001600182028036833780820191505090505b5090505b6000851461255f576001826124c59190613461565b9150600a856124d491906135f7565b60306124e091906133da565b60f81b81838151811061251c577f4e487b7100000000000000000000000000000000000000000000000000000000600052603260045260246000fd5b60200101907effffffffffffffffffffffffffffffffffffffffffffffffffffffffffffff1916908160001a905350600a856125589190613430565b94506124b0565b8093505050505b919050565b8280546125779061354b565b90600052602060002090601f01602090048101928261259957600085556125e0565b82601f106125b257805160ff19168380011785556125e0565b828001600101855582156125e0579182015b828111156125df5782518255916020019190600101906125c4565b5b5090506125ed9190612631565b5090565b5080546125fd9061354b565b6000825580601f1061260f575061262e565b601f01602090049060005260206000209081019061262d9190612631565b5b50565b5b8082111561264a576000816000905550600101612632565b5090565b600061266161265c84613335565b613310565b90508281526020810184848401111561267957600080fd5b612684848285613509565b509392505050565b600061269f61269a84613366565b613310565b9050828152602081018484840111156126b757600080fd5b6126c2848285613509565b509392505050565b6000813590506126d981613d2d565b92915050565b6000813590506126ee81613d44565b92915050565b60008135905061270381613d5b565b92915050565b60008151905061271881613d5b565b92915050565b600082601f83011261272f57600080fd5b813561273f84826020860161264e565b91505092915050565b600082601f83011261275957600080fd5b813561276984826020860161268c565b91505092915050565b60008135905061278181613d72565b92915050565b60006020828403121561279957600080fd5b60006127a7848285016126ca565b91505092915050565b600080604083850312156127c357600080fd5b60006127d1858286016126ca565b92505060206127e2858286016126ca565b9150509250929050565b60008060006060848603121561280157600080fd5b600061280f868287016126ca565b9350506020612820868287016126ca565b925050604061283186828701612772565b9150509250925092565b6000806000806080858703121561285157600080fd5b600061285f878288016126ca565b9450506020612870878288016126ca565b935050604061288187828801612772565b925050606085013567ffffffffffffffff81111561289e57600080fd5b6128aa8782880161271e565b91505092959194509250565b600080604083850312156128c957600080fd5b60006128d7858286016126ca565b92505060206128e8858286016126df565b9150509250929050565b6000806040838503121561290557600080fd5b6000612913858286016126ca565b925050602083013567ffffffffffffffff81111561293057600080fd5b61293c85828601612748565b9150509250929050565b6000806040838503121561295957600080fd5b6000612967858286016126ca565b925050602061297885828601612772565b9150509250929050565b60006020828403121561299457600080fd5b60006129a2848285016126f4565b91505092915050565b6000602082840312156129bd57600080fd5b60006129cb84828501612709565b91505092915050565b6000602082840312156129e657600080fd5b600082013567ffffffffffffffff811115612a0057600080fd5b612a0c84828501612748565b91505092915050565b60008060408385031215612a2857600080fd5b600083013567ffffffffffffffff811115612a4257600080fd5b612a4e85828601612748565b925050602083013567ffffffffffffffff811115612a6b57600080fd5b612a7785828601612748565b9150509250929050565b60008060408385031215612a9457600080fd5b600083013567ffffffffffffffff811115612aae57600080fd5b612aba85828601612748565b9250506020612acb85828601612772565b9150509250929050565b600060208284031215612ae757600080fd5b6000612af584828501612772565b91505092915050565b612b0781613495565b82525050565b612b16816134a7565b82525050565b6000612b2782613397565b612b3181856133ad565b9350612b41818560208601613518565b612b4a816136e4565b840191505092915050565b6000612b60826133a2565b612b6a81856133be565b9350612b7a818560208601613518565b612b83816136e4565b840191505092915050565b6000612b99826133a2565b612ba381856133cf565b9350612bb3818560208601613518565b80840191505092915050565b6000612bcc6032836133be565b9150612bd7826136f5565b604082019050919050565b6000612bef6026836133be565b9150612bfa82613744565b604082019050919050565b6000612c12601c836133be565b9150612c1d82613793565b602082019050919050565b6000612c356013836133be565b9150612c40826137bc565b602082019050919050565b6000612c586024836133be565b9150612c63826137e5565b604082019050919050565b6000612c7b6019836133be565b9150612c8682613834565b602082019050919050565b6000612c9e602c836133be565b9150612ca98261385d565b604082019050919050565b6000612cc16038836133be565b9150612ccc826138ac565b604082019050919050565b6000612ce4602a836133be565b9150612cef826138fb565b604082019050919050565b6000612d076029836133be565b9150612d128261394a565b604082019050919050565b6000612d2a602e836133be565b9150612d3582613999565b604082019050919050565b6000612d4d6014836133be565b9150612d58826139e8565b602082019050919050565b6000612d706020836133be565b9150612d7b82613a11565b602082019050919050565b6000612d936031836133be565b9150612d9e82613a3a565b604082019050919050565b6000612db6602c836133be565b9150612dc182613a89565b604082019050919050565b6000612dd96020836133be565b9150612de482613ad8565b602082019050919050565b6000612dfc6029836133be565b9150612e0782613b01565b604082019050919050565b6000612e1f602f836133be565b9150612e2a82613b50565b604082019050919050565b6000612e426021836133be565b9150612e4d82613b9f565b604082019050919050565b6000612e656031836133be565b9150612e7082613bee565b604082019050919050565b6000612e886013836133be565b9150612e9382613c3d565b602082019050919050565b6000612eab602c836133be565b9150612eb682613c66565b604082019050919050565b6000612ece6030836133be565b9150612ed982613cb5565b604082019050919050565b6000612ef1600f836133be565b9150612efc82613d04565b602082019050919050565b612f10816134ff565b82525050565b6000612f228284612b8e565b915081905092915050565b6000612f398285612b8e565b9150612f458284612b8e565b91508190509392505050565b6000602082019050612f666000830184612afe565b92915050565b6000608082019050612f816000830187612afe565b612f8e6020830186612afe565b612f9b6040830185612f07565b8181036060830152612fad8184612b1c565b905095945050505050565b6000602082019050612fcd6000830184612b0d565b92915050565b60006020820190508181036000830152612fed8184612b55565b905092915050565b6000602082019050818103600083015261300e81612bbf565b9050919050565b6000602082019050818103600083015261302e81612be2565b9050919050565b6000602082019050818103600083015261304e81612c05565b9050919050565b6000602082019050818103600083015261306e81612c28565b9050919050565b6000602082019050818103600083015261308e81612c4b565b9050919050565b600060208201905081810360008301526130ae81612c6e565b9050919050565b600060208201905081810360008301526130ce81612c91565b9050919050565b600060208201905081810360008301526130ee81612cb4565b9050919050565b6000602082019050818103600083015261310e81612cd7565b9050919050565b6000602082019050818103600083015261312e81612cfa565b9050919050565b6000602082019050818103600083015261314e81612d1d565b9050919050565b6000602082019050818103600083015261316e81612d40565b9050919050565b6000602082019050818103600083015261318e81612d63565b9050919050565b600060208201905081810360008301526131ae81612d86565b9050919050565b600060208201905081810360008301526131ce81612da9565b9050919050565b600060208201905081810360008301526131ee81612dcc565b9050919050565b6000602082019050818103600083015261320e81612def565b9050919050565b6000602082019050818103600083015261322e81612e12565b9050919050565b6000602082019050818103600083015261324e81612e35565b9050919050565b6000602082019050818103600083015261326e81612e58565b9050919050565b6000602082019050818103600083015261328e81612e7b565b9050919050565b600060208201905081810360008301526132ae81612e9e565b9050919050565b600060208201905081810360008301526132ce81612ec1565b9050919050565b600060208201905081810360008301526132ee81612ee4565b9050919050565b600060208201905061330a6000830184612f07565b92915050565b600061331a61332b565b9050613326828261357d565b919050565b6000604051905090565b600067ffffffffffffffff8211156133505761334f6136b5565b5b613359826136e4565b9050602081019050919050565b600067ffffffffffffffff821115613381576133806136b5565b5b61338a826136e4565b9050602081019050919050565b600081519050919050565b600081519050919050565b600082825260208201905092915050565b600082825260208201905092915050565b600081905092915050565b60006133e5826134ff565b91506133f0836134ff565b9250827fffffffffffffffffffffffffffffffffffffffffffffffffffffffffffffffff0382111561342557613424613628565b5b828201905092915050565b600061343b826134ff565b9150613446836134ff565b92508261345657613455613657565b5b828204905092915050565b600061346c826134ff565b9150613477836134ff565b92508282101561348a57613489613628565b5b828203905092915050565b60006134a0826134df565b9050919050565b60008115159050919050565b60007fffffffff0000000000000000000000000000000000000000000000000000000082169050919050565b600073ffffffffffffffffffffffffffffffffffffffff82169050919050565b6000819050919050565b82818337600083830152505050565b60005b8381101561353657808201518184015260208101905061351b565b83811115613545576000848401525b50505050565b6000600282049050600182168061356357607f821691505b6020821081141561357757613576613686565b5b50919050565b613586826136e4565b810181811067ffffffffffffffff821117156135a5576135a46136b5565b5b80604052505050565b60006135b9826134ff565b91507fffffffffffffffffffffffffffffffffffffffffffffffffffffffffffffffff8214156135ec576135eb613628565b5b600182019050919050565b6000613602826134ff565b915061360d836134ff565b92508261361d5761361c613657565b5b828206905092915050565b7f4e487b7100000000000000000000000000000000000000000000000000000000600052601160045260246000fd5b7f4e487b7100000000000000000000000000000000000000000000000000000000600052601260045260246000fd5b7f4e487b7100000000000000000000000000000000000000000000000000000000600052602260045260246000fd5b7f4e487b7100000000000000000000000000000000000000000000000000000000600052604160045260246000fd5b6000601f19601f8301169050919050565b7f4552433732313a207472616e7366657220746f206e6f6e20455243373231526560008201527f63656976657220696d706c656d656e7465720000000000000000000000000000602082015250565b7f4f776e61626c653a206e6577206f776e657220697320746865207a65726f206160008201527f6464726573730000000000000000000000000000000000000000000000000000602082015250565b7f4552433732313a20746f6b656e20616c7265616479206d696e74656400000000600082015250565b7f4e465420616c7265616479206275726e65642100000000000000000000000000600082015250565b7f4552433732313a207472616e7366657220746f20746865207a65726f2061646460008201527f7265737300000000000000000000000000000000000000000000000000000000602082015250565b7f4552433732313a20617070726f766520746f2063616c6c657200000000000000600082015250565b7f4552433732313a206f70657261746f7220717565727920666f72206e6f6e657860008201527f697374656e7420746f6b656e0000000000000000000000000000000000000000602082015250565b7f4552433732313a20617070726f76652063616c6c6572206973206e6f74206f7760008201527f6e6572206e6f7220617070726f76656420666f7220616c6c0000000000000000602082015250565b7f4552433732313a2062616c616e636520717565727920666f7220746865207a6560008201527f726f206164647265737300000000000000000000000000000000000000000000602082015250565b7f4552433732313a206f776e657220717565727920666f72206e6f6e657869737460008201527f656e7420746f6b656e0000000000000000000000000000000000000000000000602082015250565b7f45524337323155524953746f726167653a2055524920736574206f66206e6f6e60008201527f6578697374656e7420746f6b656e000000000000000000000000000000000000602082015250565b7f5472616e73666572206e6f7420616c6c6f776564000000000000000000000000600082015250565b7f4552433732313a206d696e7420746f20746865207a65726f2061646472657373600082015250565b7f45524337323155524953746f726167653a2055524920717565727920666f722060008201527f6e6f6e6578697374656e7420746f6b656e000000000000000000000000000000602082015250565b7f4552433732313a20617070726f76656420717565727920666f72206e6f6e657860008201527f697374656e7420746f6b656e0000000000000000000000000000000000000000602082015250565b7f4f776e61626c653a2063616c6c6572206973206e6f7420746865206f776e6572600082015250565b7f4552433732313a207472616e73666572206f6620746f6b656e2074686174206960008201527f73206e6f74206f776e0000000000000000000000000000000000000000000000602082015250565b7f4552433732314d657461646174613a2055524920717565727920666f72206e6f60008201527f6e6578697374656e7420746f6b656e0000000000000000000000000000000000602082015250565b7f4552433732313a20617070726f76616c20746f2063757272656e74206f776e6560008201527f7200000000000000000000000000000000000000000000000000000000000000602082015250565b7f4552433732313a207472616e736665722063616c6c6572206973206e6f74206f60008201527f776e6572206e6f7220617070726f766564000000000000000000000000000000602082015250565b7f4e465420616c7265616479206d696e7465642100000000000000000000000000600082015250565b7f596f75206d757374206f776e2074686973206e756d62657220696e206f72646560008201527f7220746f206275726e2069740000000000000000000000000000000000000000602082015250565b7f4552433732314275726e61626c653a2063616c6c6572206973206e6f74206f7760008201527f6e6572206e6f7220617070726f76656400000000000000000000000000000000602082015250565b7f4e65656420746f20706179207570210000000000000000000000000000000000600082015250565b613d3681613495565b8114613d4157600080fd5b50565b613d4d816134a7565b8114613d5857600080fd5b50565b613d64816134b3565b8114613d6f57600080fd5b50565b613d7b816134ff565b8114613d8657600080fd5b5056fea2646970667358221220b3e9aa016f327860db9d91cd0b1116e48d045de207dd6694af386f75ecb8163264736f6c63430008040033",
  "linkReferences": {},
  "deployedLinkReferences": {}
}